{
	"contracts/Calculator.sol": {
		"Cal": {
			"abi": [
				{
					"inputs": [
						{
							"internalType": "int256",
							"name": "num",
							"type": "int256"
						}
					],
					"name": "Remainder",
					"outputs": [],
					"stateMutability": "nonpayable",
					"type": "function"
				},
				{
					"inputs": [
						{
							"internalType": "int256",
							"name": "num",
							"type": "int256"
						}
					],
					"name": "add",
					"outputs": [],
					"stateMutability": "nonpayable",
					"type": "function"
				},
				{
					"inputs": [
						{
							"internalType": "int256",
							"name": "num",
							"type": "int256"
						}
					],
					"name": "divide",
					"outputs": [],
					"stateMutability": "nonpayable",
					"type": "function"
				},
				{
					"inputs": [],
					"name": "get",
					"outputs": [
						{
							"internalType": "int256",
							"name": "",
							"type": "int256"
						}
					],
					"stateMutability": "view",
					"type": "function"
				},
				{
					"inputs": [
						{
							"internalType": "int256",
							"name": "num",
							"type": "int256"
						}
					],
					"name": "multiply",
					"outputs": [],
					"stateMutability": "nonpayable",
					"type": "function"
				},
				{
					"inputs": [],
					"name": "reset",
					"outputs": [],
					"stateMutability": "nonpayable",
					"type": "function"
				},
				{
					"inputs": [
						{
							"internalType": "int256",
							"name": "num",
							"type": "int256"
						}
					],
					"name": "subtract",
					"outputs": [],
					"stateMutability": "nonpayable",
					"type": "function"
				}
			],
			"devdoc": {
				"kind": "dev",
				"methods": {},
				"version": 1
			},
			"evm": {
				"assembly": "    /* \"contracts/Calculator.sol\":60:735  contract Cal {... */\n  mstore(0x40, 0x80)\n    /* \"contracts/Calculator.sol\":96:97  0 */\n  0x00\n    /* \"contracts/Calculator.sol\":80:97  int256 result = 0 */\n  dup1\n  sstore\n    /* \"contracts/Calculator.sol\":60:735  contract Cal {... */\n  callvalue\n  dup1\n  iszero\n  tag_1\n  jumpi\n  0x00\n  dup1\n  revert\ntag_1:\n  pop\n  dataSize(sub_0)\n  dup1\n  dataOffset(sub_0)\n  0x00\n  codecopy\n  0x00\n  return\nstop\n\nsub_0: assembly {\n        /* \"contracts/Calculator.sol\":60:735  contract Cal {... */\n      mstore(0x40, 0x80)\n      callvalue\n      dup1\n      iszero\n      tag_1\n      jumpi\n      0x00\n      dup1\n      revert\n    tag_1:\n      pop\n      jumpi(tag_2, lt(calldatasize, 0x04))\n      shr(0xe0, calldataload(0x00))\n      dup1\n      0x87db03b7\n      gt\n      tag_10\n      jumpi\n      dup1\n      0x87db03b7\n      eq\n      tag_6\n      jumpi\n      dup1\n      0xaaa044dc\n      eq\n      tag_7\n      jumpi\n      dup1\n      0xae0f6166\n      eq\n      tag_8\n      jumpi\n      dup1\n      0xd826f88f\n      eq\n      tag_9\n      jumpi\n      jump(tag_2)\n    tag_10:\n      dup1\n      0x0e2ced2a\n      eq\n      tag_3\n      jumpi\n      dup1\n      0x1df4f144\n      eq\n      tag_4\n      jumpi\n      dup1\n      0x6d4ce63c\n      eq\n      tag_5\n      jumpi\n    tag_2:\n      0x00\n      dup1\n      revert\n        /* \"contracts/Calculator.sol\":466:587  function Remainder(int256 num) public {... */\n    tag_3:\n      tag_11\n      0x04\n      dup1\n      calldatasize\n      sub\n      dup2\n      add\n      swap1\n      tag_12\n      swap2\n      swap1\n      tag_13\n      jump\t// in\n    tag_12:\n      tag_14\n      jump\t// in\n    tag_11:\n      stop\n        /* \"contracts/Calculator.sol\":259:328  function multiply(int256 num) public {... */\n    tag_4:\n      tag_15\n      0x04\n      dup1\n      calldatasize\n      sub\n      dup2\n      add\n      swap1\n      tag_16\n      swap2\n      swap1\n      tag_13\n      jump\t// in\n    tag_16:\n      tag_17\n      jump\t// in\n    tag_15:\n      stop\n        /* \"contracts/Calculator.sol\":656:732  function get() public view returns (int256) {... */\n    tag_5:\n      tag_18\n      tag_19\n      jump\t// in\n    tag_18:\n      mload(0x40)\n      tag_20\n      swap2\n      swap1\n      tag_21\n      jump\t// in\n    tag_20:\n      mload(0x40)\n      dup1\n      swap2\n      sub\n      swap1\n      return\n        /* \"contracts/Calculator.sol\":106:170  function add(int256 num) public {... */\n    tag_6:\n      tag_22\n      0x04\n      dup1\n      calldatasize\n      sub\n      dup2\n      add\n      swap1\n      tag_23\n      swap2\n      swap1\n      tag_13\n      jump\t// in\n    tag_23:\n      tag_24\n      jump\t// in\n    tag_22:\n      stop\n        /* \"contracts/Calculator.sol\":336:456  function divide(int256 num) public {... */\n    tag_7:\n      tag_25\n      0x04\n      dup1\n      calldatasize\n      sub\n      dup2\n      add\n      swap1\n      tag_26\n      swap2\n      swap1\n      tag_13\n      jump\t// in\n    tag_26:\n      tag_27\n      jump\t// in\n    tag_25:\n      stop\n        /* \"contracts/Calculator.sol\":178:247  function subtract(int256 num) public {... */\n    tag_8:\n      tag_28\n      0x04\n      dup1\n      calldatasize\n      sub\n      dup2\n      add\n      swap1\n      tag_29\n      swap2\n      swap1\n      tag_13\n      jump\t// in\n    tag_29:\n      tag_30\n      jump\t// in\n    tag_28:\n      stop\n        /* \"contracts/Calculator.sol\":595:648  function reset() public {... */\n    tag_9:\n      tag_31\n      tag_32\n      jump\t// in\n    tag_31:\n      stop\n        /* \"contracts/Calculator.sol\":466:587  function Remainder(int256 num) public {... */\n    tag_14:\n        /* \"contracts/Calculator.sol\":530:531  0 */\n      0x00\n        /* \"contracts/Calculator.sol\":523:526  num */\n      dup2\n        /* \"contracts/Calculator.sol\":523:531  num != 0 */\n      sub\n        /* \"contracts/Calculator.sol\":515:555  require(num != 0, \"Cannot do with zero\") */\n      tag_34\n      jumpi\n      mload(0x40)\n      0x08c379a000000000000000000000000000000000000000000000000000000000\n      dup2\n      mstore\n      0x04\n      add\n      tag_35\n      swap1\n      tag_36\n      jump\t// in\n    tag_35:\n      mload(0x40)\n      dup1\n      swap2\n      sub\n      swap1\n      revert\n    tag_34:\n        /* \"contracts/Calculator.sol\":576:579  num */\n      dup1\n        /* \"contracts/Calculator.sol\":566:572  result */\n      0x00\n      dup1\n        /* \"contracts/Calculator.sol\":566:579  result %= num */\n      dup3\n      dup3\n      sload\n      tag_37\n      swap2\n      swap1\n      tag_38\n      jump\t// in\n    tag_37:\n      swap3\n      pop\n      pop\n      dup2\n      swap1\n      sstore\n      pop\n        /* \"contracts/Calculator.sol\":466:587  function Remainder(int256 num) public {... */\n      pop\n      jump\t// out\n        /* \"contracts/Calculator.sol\":259:328  function multiply(int256 num) public {... */\n    tag_17:\n        /* \"contracts/Calculator.sol\":317:320  num */\n      dup1\n        /* \"contracts/Calculator.sol\":307:313  result */\n      0x00\n      dup1\n        /* \"contracts/Calculator.sol\":307:320  result *= num */\n      dup3\n      dup3\n      sload\n      tag_40\n      swap2\n      swap1\n      tag_41\n      jump\t// in\n    tag_40:\n      swap3\n      pop\n      pop\n      dup2\n      swap1\n      sstore\n      pop\n        /* \"contracts/Calculator.sol\":259:328  function multiply(int256 num) public {... */\n      pop\n      jump\t// out\n        /* \"contracts/Calculator.sol\":656:732  function get() public view returns (int256) {... */\n    tag_19:\n        /* \"contracts/Calculator.sol\":692:698  int256 */\n      0x00\n        /* \"contracts/Calculator.sol\":718:724  result */\n      dup1\n      sload\n        /* \"contracts/Calculator.sol\":711:724  return result */\n      swap1\n      pop\n        /* \"contracts/Calculator.sol\":656:732  function get() public view returns (int256) {... */\n      swap1\n      jump\t// out\n        /* \"contracts/Calculator.sol\":106:170  function add(int256 num) public {... */\n    tag_24:\n        /* \"contracts/Calculator.sol\":159:162  num */\n      dup1\n        /* \"contracts/Calculator.sol\":149:155  result */\n      0x00\n      dup1\n        /* \"contracts/Calculator.sol\":149:162  result += num */\n      dup3\n      dup3\n      sload\n      tag_44\n      swap2\n      swap1\n      tag_45\n      jump\t// in\n    tag_44:\n      swap3\n      pop\n      pop\n      dup2\n      swap1\n      sstore\n      pop\n        /* \"contracts/Calculator.sol\":106:170  function add(int256 num) public {... */\n      pop\n      jump\t// out\n        /* \"contracts/Calculator.sol\":336:456  function divide(int256 num) public {... */\n    tag_27:\n        /* \"contracts/Calculator.sol\":397:398  0 */\n      0x00\n        /* \"contracts/Calculator.sol\":390:393  num */\n      dup2\n        /* \"contracts/Calculator.sol\":390:398  num != 0 */\n      sub\n        /* \"contracts/Calculator.sol\":382:424  require(num != 0, \"Cannot divide by zero\") */\n      tag_47\n      jumpi\n      mload(0x40)\n      0x08c379a000000000000000000000000000000000000000000000000000000000\n      dup2\n      mstore\n      0x04\n      add\n      tag_48\n      swap1\n      tag_49\n      jump\t// in\n    tag_48:\n      mload(0x40)\n      dup1\n      swap2\n      sub\n      swap1\n      revert\n    tag_47:\n        /* \"contracts/Calculator.sol\":445:448  num */\n      dup1\n        /* \"contracts/Calculator.sol\":435:441  result */\n      0x00\n      dup1\n        /* \"contracts/Calculator.sol\":435:448  result /= num */\n      dup3\n      dup3\n      sload\n      tag_50\n      swap2\n      swap1\n      tag_51\n      jump\t// in\n    tag_50:\n      swap3\n      pop\n      pop\n      dup2\n      swap1\n      sstore\n      pop\n        /* \"contracts/Calculator.sol\":336:456  function divide(int256 num) public {... */\n      pop\n      jump\t// out\n        /* \"contracts/Calculator.sol\":178:247  function subtract(int256 num) public {... */\n    tag_30:\n        /* \"contracts/Calculator.sol\":236:239  num */\n      dup1\n        /* \"contracts/Calculator.sol\":226:232  result */\n      0x00\n      dup1\n        /* \"contracts/Calculator.sol\":226:239  result -= num */\n      dup3\n      dup3\n      sload\n      tag_53\n      swap2\n      swap1\n      tag_54\n      jump\t// in\n    tag_53:\n      swap3\n      pop\n      pop\n      dup2\n      swap1\n      sstore\n      pop\n        /* \"contracts/Calculator.sol\":178:247  function subtract(int256 num) public {... */\n      pop\n      jump\t// out\n        /* \"contracts/Calculator.sol\":595:648  function reset() public {... */\n    tag_32:\n        /* \"contracts/Calculator.sol\":639:640  0 */\n      0x00\n        /* \"contracts/Calculator.sol\":630:636  result */\n      dup1\n        /* \"contracts/Calculator.sol\":630:640  result = 0 */\n      dup2\n      swap1\n      sstore\n      pop\n        /* \"contracts/Calculator.sol\":595:648  function reset() public {... */\n      jump\t// out\n        /* \"#utility.yul\":88:205   */\n    tag_57:\n        /* \"#utility.yul\":197:198   */\n      0x00\n        /* \"#utility.yul\":194:195   */\n      dup1\n        /* \"#utility.yul\":187:199   */\n      revert\n        /* \"#utility.yul\":334:410   */\n    tag_59:\n        /* \"#utility.yul\":370:377   */\n      0x00\n        /* \"#utility.yul\":399:404   */\n      dup2\n        /* \"#utility.yul\":388:404   */\n      swap1\n      pop\n        /* \"#utility.yul\":334:410   */\n      swap2\n      swap1\n      pop\n      jump\t// out\n        /* \"#utility.yul\":416:536   */\n    tag_60:\n        /* \"#utility.yul\":488:511   */\n      tag_76\n        /* \"#utility.yul\":505:510   */\n      dup2\n        /* \"#utility.yul\":488:511   */\n      tag_59\n      jump\t// in\n    tag_76:\n        /* \"#utility.yul\":481:486   */\n      dup2\n        /* \"#utility.yul\":478:512   */\n      eq\n        /* \"#utility.yul\":468:530   */\n      tag_77\n      jumpi\n        /* \"#utility.yul\":526:527   */\n      0x00\n        /* \"#utility.yul\":523:524   */\n      dup1\n        /* \"#utility.yul\":516:528   */\n      revert\n        /* \"#utility.yul\":468:530   */\n    tag_77:\n        /* \"#utility.yul\":416:536   */\n      pop\n      jump\t// out\n        /* \"#utility.yul\":542:679   */\n    tag_61:\n        /* \"#utility.yul\":587:592   */\n      0x00\n        /* \"#utility.yul\":625:631   */\n      dup2\n        /* \"#utility.yul\":612:632   */\n      calldataload\n        /* \"#utility.yul\":603:632   */\n      swap1\n      pop\n        /* \"#utility.yul\":641:673   */\n      tag_79\n        /* \"#utility.yul\":667:672   */\n      dup2\n        /* \"#utility.yul\":641:673   */\n      tag_60\n      jump\t// in\n    tag_79:\n        /* \"#utility.yul\":542:679   */\n      swap3\n      swap2\n      pop\n      pop\n      jump\t// out\n        /* \"#utility.yul\":685:1012   */\n    tag_13:\n        /* \"#utility.yul\":743:749   */\n      0x00\n        /* \"#utility.yul\":792:794   */\n      0x20\n        /* \"#utility.yul\":780:789   */\n      dup3\n        /* \"#utility.yul\":771:778   */\n      dup5\n        /* \"#utility.yul\":767:790   */\n      sub\n        /* \"#utility.yul\":763:795   */\n      slt\n        /* \"#utility.yul\":760:879   */\n      iszero\n      tag_81\n      jumpi\n        /* \"#utility.yul\":798:877   */\n      tag_82\n      tag_57\n      jump\t// in\n    tag_82:\n        /* \"#utility.yul\":760:879   */\n    tag_81:\n        /* \"#utility.yul\":918:919   */\n      0x00\n        /* \"#utility.yul\":943:995   */\n      tag_83\n        /* \"#utility.yul\":987:994   */\n      dup5\n        /* \"#utility.yul\":978:984   */\n      dup3\n        /* \"#utility.yul\":967:976   */\n      dup6\n        /* \"#utility.yul\":963:985   */\n      add\n        /* \"#utility.yul\":943:995   */\n      tag_61\n      jump\t// in\n    tag_83:\n        /* \"#utility.yul\":933:995   */\n      swap2\n      pop\n        /* \"#utility.yul\":889:1005   */\n      pop\n        /* \"#utility.yul\":685:1012   */\n      swap3\n      swap2\n      pop\n      pop\n      jump\t// out\n        /* \"#utility.yul\":1018:1133   */\n    tag_62:\n        /* \"#utility.yul\":1103:1126   */\n      tag_85\n        /* \"#utility.yul\":1120:1125   */\n      dup2\n        /* \"#utility.yul\":1103:1126   */\n      tag_59\n      jump\t// in\n    tag_85:\n        /* \"#utility.yul\":1098:1101   */\n      dup3\n        /* \"#utility.yul\":1091:1127   */\n      mstore\n        /* \"#utility.yul\":1018:1133   */\n      pop\n      pop\n      jump\t// out\n        /* \"#utility.yul\":1139:1357   */\n    tag_21:\n        /* \"#utility.yul\":1230:1234   */\n      0x00\n        /* \"#utility.yul\":1268:1270   */\n      0x20\n        /* \"#utility.yul\":1257:1266   */\n      dup3\n        /* \"#utility.yul\":1253:1271   */\n      add\n        /* \"#utility.yul\":1245:1271   */\n      swap1\n      pop\n        /* \"#utility.yul\":1281:1350   */\n      tag_87\n        /* \"#utility.yul\":1347:1348   */\n      0x00\n        /* \"#utility.yul\":1336:1345   */\n      dup4\n        /* \"#utility.yul\":1332:1349   */\n      add\n        /* \"#utility.yul\":1323:1329   */\n      dup5\n        /* \"#utility.yul\":1281:1350   */\n      tag_62\n      jump\t// in\n    tag_87:\n        /* \"#utility.yul\":1139:1357   */\n      swap3\n      swap2\n      pop\n      pop\n      jump\t// out\n        /* \"#utility.yul\":1363:1532   */\n    tag_63:\n        /* \"#utility.yul\":1447:1458   */\n      0x00\n        /* \"#utility.yul\":1481:1487   */\n      dup3\n        /* \"#utility.yul\":1476:1479   */\n      dup3\n        /* \"#utility.yul\":1469:1488   */\n      mstore\n        /* \"#utility.yul\":1521:1525   */\n      0x20\n        /* \"#utility.yul\":1516:1519   */\n      dup3\n        /* \"#utility.yul\":1512:1526   */\n      add\n        /* \"#utility.yul\":1497:1526   */\n      swap1\n      pop\n        /* \"#utility.yul\":1363:1532   */\n      swap3\n      swap2\n      pop\n      pop\n      jump\t// out\n        /* \"#utility.yul\":1538:1707   */\n    tag_64:\n        /* \"#utility.yul\":1678:1699   */\n      0x43616e6e6f7420646f2077697468207a65726f00000000000000000000000000\n        /* \"#utility.yul\":1674:1675   */\n      0x00\n        /* \"#utility.yul\":1666:1672   */\n      dup3\n        /* \"#utility.yul\":1662:1676   */\n      add\n        /* \"#utility.yul\":1655:1700   */\n      mstore\n        /* \"#utility.yul\":1538:1707   */\n      pop\n      jump\t// out\n        /* \"#utility.yul\":1713:2079   */\n    tag_65:\n        /* \"#utility.yul\":1855:1858   */\n      0x00\n        /* \"#utility.yul\":1876:1943   */\n      tag_91\n        /* \"#utility.yul\":1940:1942   */\n      0x13\n        /* \"#utility.yul\":1935:1938   */\n      dup4\n        /* \"#utility.yul\":1876:1943   */\n      tag_63\n      jump\t// in\n    tag_91:\n        /* \"#utility.yul\":1869:1943   */\n      swap2\n      pop\n        /* \"#utility.yul\":1952:2045   */\n      tag_92\n        /* \"#utility.yul\":2041:2044   */\n      dup3\n        /* \"#utility.yul\":1952:2045   */\n      tag_64\n      jump\t// in\n    tag_92:\n        /* \"#utility.yul\":2070:2072   */\n      0x20\n        /* \"#utility.yul\":2065:2068   */\n      dup3\n        /* \"#utility.yul\":2061:2073   */\n      add\n        /* \"#utility.yul\":2054:2073   */\n      swap1\n      pop\n        /* \"#utility.yul\":1713:2079   */\n      swap2\n      swap1\n      pop\n      jump\t// out\n        /* \"#utility.yul\":2085:2504   */\n    tag_36:\n        /* \"#utility.yul\":2251:2255   */\n      0x00\n        /* \"#utility.yul\":2289:2291   */\n      0x20\n        /* \"#utility.yul\":2278:2287   */\n      dup3\n        /* \"#utility.yul\":2274:2292   */\n      add\n        /* \"#utility.yul\":2266:2292   */\n      swap1\n      pop\n        /* \"#utility.yul\":2338:2347   */\n      dup2\n        /* \"#utility.yul\":2332:2336   */\n      dup2\n        /* \"#utility.yul\":2328:2348   */\n      sub\n        /* \"#utility.yul\":2324:2325   */\n      0x00\n        /* \"#utility.yul\":2313:2322   */\n      dup4\n        /* \"#utility.yul\":2309:2326   */\n      add\n        /* \"#utility.yul\":2302:2349   */\n      mstore\n        /* \"#utility.yul\":2366:2497   */\n      tag_94\n        /* \"#utility.yul\":2492:2496   */\n      dup2\n        /* \"#utility.yul\":2366:2497   */\n      tag_65\n      jump\t// in\n    tag_94:\n        /* \"#utility.yul\":2358:2497   */\n      swap1\n      pop\n        /* \"#utility.yul\":2085:2504   */\n      swap2\n      swap1\n      pop\n      jump\t// out\n        /* \"#utility.yul\":2510:2690   */\n    tag_66:\n        /* \"#utility.yul\":2558:2635   */\n      0x4e487b7100000000000000000000000000000000000000000000000000000000\n        /* \"#utility.yul\":2555:2556   */\n      0x00\n        /* \"#utility.yul\":2548:2636   */\n      mstore\n        /* \"#utility.yul\":2655:2659   */\n      0x12\n        /* \"#utility.yul\":2652:2653   */\n      0x04\n        /* \"#utility.yul\":2645:2660   */\n      mstore\n        /* \"#utility.yul\":2679:2683   */\n      0x24\n        /* \"#utility.yul\":2676:2677   */\n      0x00\n        /* \"#utility.yul\":2669:2684   */\n      revert\n        /* \"#utility.yul\":2696:2870   */\n    tag_38:\n        /* \"#utility.yul\":2727:2728   */\n      0x00\n        /* \"#utility.yul\":2744:2763   */\n      tag_97\n        /* \"#utility.yul\":2761:2762   */\n      dup3\n        /* \"#utility.yul\":2744:2763   */\n      tag_59\n      jump\t// in\n    tag_97:\n        /* \"#utility.yul\":2739:2763   */\n      swap2\n      pop\n        /* \"#utility.yul\":2777:2796   */\n      tag_98\n        /* \"#utility.yul\":2794:2795   */\n      dup4\n        /* \"#utility.yul\":2777:2796   */\n      tag_59\n      jump\t// in\n    tag_98:\n        /* \"#utility.yul\":2772:2796   */\n      swap3\n      pop\n        /* \"#utility.yul\":2815:2816   */\n      dup3\n        /* \"#utility.yul\":2805:2840   */\n      tag_99\n      jumpi\n        /* \"#utility.yul\":2820:2838   */\n      tag_100\n      tag_66\n      jump\t// in\n    tag_100:\n        /* \"#utility.yul\":2805:2840   */\n    tag_99:\n        /* \"#utility.yul\":2862:2863   */\n      dup3\n        /* \"#utility.yul\":2859:2860   */\n      dup3\n        /* \"#utility.yul\":2854:2864   */\n      smod\n        /* \"#utility.yul\":2849:2864   */\n      swap1\n      pop\n        /* \"#utility.yul\":2696:2870   */\n      swap3\n      swap2\n      pop\n      pop\n      jump\t// out\n        /* \"#utility.yul\":2876:3056   */\n    tag_67:\n        /* \"#utility.yul\":2924:3001   */\n      0x4e487b7100000000000000000000000000000000000000000000000000000000\n        /* \"#utility.yul\":2921:2922   */\n      0x00\n        /* \"#utility.yul\":2914:3002   */\n      mstore\n        /* \"#utility.yul\":3021:3025   */\n      0x11\n        /* \"#utility.yul\":3018:3019   */\n      0x04\n        /* \"#utility.yul\":3011:3026   */\n      mstore\n        /* \"#utility.yul\":3045:3049   */\n      0x24\n        /* \"#utility.yul\":3042:3043   */\n      0x00\n        /* \"#utility.yul\":3035:3050   */\n      revert\n        /* \"#utility.yul\":3062:3618   */\n    tag_41:\n        /* \"#utility.yul\":3101:3108   */\n      0x00\n        /* \"#utility.yul\":3124:3143   */\n      tag_103\n        /* \"#utility.yul\":3141:3142   */\n      dup3\n        /* \"#utility.yul\":3124:3143   */\n      tag_59\n      jump\t// in\n    tag_103:\n        /* \"#utility.yul\":3119:3143   */\n      swap2\n      pop\n        /* \"#utility.yul\":3157:3176   */\n      tag_104\n        /* \"#utility.yul\":3174:3175   */\n      dup4\n        /* \"#utility.yul\":3157:3176   */\n      tag_59\n      jump\t// in\n    tag_104:\n        /* \"#utility.yul\":3152:3176   */\n      swap3\n      pop\n        /* \"#utility.yul\":3211:3212   */\n      dup3\n        /* \"#utility.yul\":3208:3209   */\n      dup3\n        /* \"#utility.yul\":3204:3213   */\n      mul\n        /* \"#utility.yul\":3233:3262   */\n      tag_105\n        /* \"#utility.yul\":3250:3261   */\n      dup2\n        /* \"#utility.yul\":3233:3262   */\n      tag_59\n      jump\t// in\n    tag_105:\n        /* \"#utility.yul\":3222:3262   */\n      swap2\n      pop\n        /* \"#utility.yul\":3320:3386   */\n      0x8000000000000000000000000000000000000000000000000000000000000000\n        /* \"#utility.yul\":3317:3318   */\n      dup5\n        /* \"#utility.yul\":3314:3387   */\n      eq\n        /* \"#utility.yul\":3310:3311   */\n      0x00\n        /* \"#utility.yul\":3307:3308   */\n      dup5\n        /* \"#utility.yul\":3303:3312   */\n      slt\n        /* \"#utility.yul\":3299:3388   */\n      and\n        /* \"#utility.yul\":3296:3411   */\n      iszero\n      tag_106\n      jumpi\n        /* \"#utility.yul\":3391:3409   */\n      tag_107\n      tag_67\n      jump\t// in\n    tag_107:\n        /* \"#utility.yul\":3296:3411   */\n    tag_106:\n        /* \"#utility.yul\":3561:3562   */\n      dup3\n        /* \"#utility.yul\":3552:3559   */\n      dup3\n        /* \"#utility.yul\":3547:3563   */\n      sdiv\n        /* \"#utility.yul\":3544:3545   */\n      dup5\n        /* \"#utility.yul\":3541:3564   */\n      eq\n        /* \"#utility.yul\":3521:3522   */\n      dup4\n        /* \"#utility.yul\":3514:3523   */\n      iszero\n        /* \"#utility.yul\":3494:3578   */\n      or\n        /* \"#utility.yul\":3471:3611   */\n      tag_108\n      jumpi\n        /* \"#utility.yul\":3591:3609   */\n      tag_109\n      tag_67\n      jump\t// in\n    tag_109:\n        /* \"#utility.yul\":3471:3611   */\n    tag_108:\n        /* \"#utility.yul\":3109:3618   */\n      pop\n        /* \"#utility.yul\":3062:3618   */\n      swap3\n      swap2\n      pop\n      pop\n      jump\t// out\n        /* \"#utility.yul\":3624:3999   */\n    tag_45:\n        /* \"#utility.yul\":3663:3666   */\n      0x00\n        /* \"#utility.yul\":3682:3701   */\n      tag_111\n        /* \"#utility.yul\":3699:3700   */\n      dup3\n        /* \"#utility.yul\":3682:3701   */\n      tag_59\n      jump\t// in\n    tag_111:\n        /* \"#utility.yul\":3677:3701   */\n      swap2\n      pop\n        /* \"#utility.yul\":3715:3734   */\n      tag_112\n        /* \"#utility.yul\":3732:3733   */\n      dup4\n        /* \"#utility.yul\":3715:3734   */\n      tag_59\n      jump\t// in\n    tag_112:\n        /* \"#utility.yul\":3710:3734   */\n      swap3\n      pop\n        /* \"#utility.yul\":3757:3758   */\n      dup3\n        /* \"#utility.yul\":3754:3755   */\n      dup3\n        /* \"#utility.yul\":3750:3759   */\n      add\n        /* \"#utility.yul\":3743:3759   */\n      swap1\n      pop\n        /* \"#utility.yul\":3955:3956   */\n      dup3\n        /* \"#utility.yul\":3950:3953   */\n      dup2\n        /* \"#utility.yul\":3946:3957   */\n      slt\n        /* \"#utility.yul\":3939:3958   */\n      iszero\n        /* \"#utility.yul\":3935:3936   */\n      0x00\n        /* \"#utility.yul\":3932:3933   */\n      dup4\n        /* \"#utility.yul\":3928:3937   */\n      slt\n        /* \"#utility.yul\":3924:3959   */\n      and\n        /* \"#utility.yul\":3907:3908   */\n      dup4\n        /* \"#utility.yul\":3902:3905   */\n      dup3\n        /* \"#utility.yul\":3898:3909   */\n      slt\n        /* \"#utility.yul\":3893:3894   */\n      0x00\n        /* \"#utility.yul\":3890:3891   */\n      dup5\n        /* \"#utility.yul\":3886:3895   */\n      slt\n        /* \"#utility.yul\":3879:3896   */\n      iszero\n        /* \"#utility.yul\":3875:3910   */\n      and\n        /* \"#utility.yul\":3859:3969   */\n      or\n        /* \"#utility.yul\":3856:3992   */\n      iszero\n      tag_113\n      jumpi\n        /* \"#utility.yul\":3972:3990   */\n      tag_114\n      tag_67\n      jump\t// in\n    tag_114:\n        /* \"#utility.yul\":3856:3992   */\n    tag_113:\n        /* \"#utility.yul\":3624:3999   */\n      swap3\n      swap2\n      pop\n      pop\n      jump\t// out\n        /* \"#utility.yul\":4005:4176   */\n    tag_68:\n        /* \"#utility.yul\":4145:4168   */\n      0x43616e6e6f7420646976696465206279207a65726f0000000000000000000000\n        /* \"#utility.yul\":4141:4142   */\n      0x00\n        /* \"#utility.yul\":4133:4139   */\n      dup3\n        /* \"#utility.yul\":4129:4143   */\n      add\n        /* \"#utility.yul\":4122:4169   */\n      mstore\n        /* \"#utility.yul\":4005:4176   */\n      pop\n      jump\t// out\n        /* \"#utility.yul\":4182:4548   */\n    tag_69:\n        /* \"#utility.yul\":4324:4327   */\n      0x00\n        /* \"#utility.yul\":4345:4412   */\n      tag_117\n        /* \"#utility.yul\":4409:4411   */\n      0x15\n        /* \"#utility.yul\":4404:4407   */\n      dup4\n        /* \"#utility.yul\":4345:4412   */\n      tag_63\n      jump\t// in\n    tag_117:\n        /* \"#utility.yul\":4338:4412   */\n      swap2\n      pop\n        /* \"#utility.yul\":4421:4514   */\n      tag_118\n        /* \"#utility.yul\":4510:4513   */\n      dup3\n        /* \"#utility.yul\":4421:4514   */\n      tag_68\n      jump\t// in\n    tag_118:\n        /* \"#utility.yul\":4539:4541   */\n      0x20\n        /* \"#utility.yul\":4534:4537   */\n      dup3\n        /* \"#utility.yul\":4530:4542   */\n      add\n        /* \"#utility.yul\":4523:4542   */\n      swap1\n      pop\n        /* \"#utility.yul\":4182:4548   */\n      swap2\n      swap1\n      pop\n      jump\t// out\n        /* \"#utility.yul\":4554:4973   */\n    tag_49:\n        /* \"#utility.yul\":4720:4724   */\n      0x00\n        /* \"#utility.yul\":4758:4760   */\n      0x20\n        /* \"#utility.yul\":4747:4756   */\n      dup3\n        /* \"#utility.yul\":4743:4761   */\n      add\n        /* \"#utility.yul\":4735:4761   */\n      swap1\n      pop\n        /* \"#utility.yul\":4807:4816   */\n      dup2\n        /* \"#utility.yul\":4801:4805   */\n      dup2\n        /* \"#utility.yul\":4797:4817   */\n      sub\n        /* \"#utility.yul\":4793:4794   */\n      0x00\n        /* \"#utility.yul\":4782:4791   */\n      dup4\n        /* \"#utility.yul\":4778:4795   */\n      add\n        /* \"#utility.yul\":4771:4818   */\n      mstore\n        /* \"#utility.yul\":4835:4966   */\n      tag_120\n        /* \"#utility.yul\":4961:4965   */\n      dup2\n        /* \"#utility.yul\":4835:4966   */\n      tag_69\n      jump\t// in\n    tag_120:\n        /* \"#utility.yul\":4827:4966   */\n      swap1\n      pop\n        /* \"#utility.yul\":4554:4973   */\n      swap2\n      swap1\n      pop\n      jump\t// out\n        /* \"#utility.yul\":4979:5364   */\n    tag_51:\n        /* \"#utility.yul\":5018:5019   */\n      0x00\n        /* \"#utility.yul\":5035:5054   */\n      tag_122\n        /* \"#utility.yul\":5052:5053   */\n      dup3\n        /* \"#utility.yul\":5035:5054   */\n      tag_59\n      jump\t// in\n    tag_122:\n        /* \"#utility.yul\":5030:5054   */\n      swap2\n      pop\n        /* \"#utility.yul\":5068:5087   */\n      tag_123\n        /* \"#utility.yul\":5085:5086   */\n      dup4\n        /* \"#utility.yul\":5068:5087   */\n      tag_59\n      jump\t// in\n    tag_123:\n        /* \"#utility.yul\":5063:5087   */\n      swap3\n      pop\n        /* \"#utility.yul\":5106:5107   */\n      dup3\n        /* \"#utility.yul\":5096:5131   */\n      tag_124\n      jumpi\n        /* \"#utility.yul\":5111:5129   */\n      tag_125\n      tag_66\n      jump\t// in\n    tag_125:\n        /* \"#utility.yul\":5096:5131   */\n    tag_124:\n        /* \"#utility.yul\":5297:5298   */\n      0x01\n        /* \"#utility.yul\":5294:5295   */\n      0x00\n        /* \"#utility.yul\":5290:5299   */\n      sub\n        /* \"#utility.yul\":5287:5288   */\n      dup4\n        /* \"#utility.yul\":5284:5300   */\n      eq\n        /* \"#utility.yul\":5203:5269   */\n      0x8000000000000000000000000000000000000000000000000000000000000000\n        /* \"#utility.yul\":5200:5201   */\n      dup4\n        /* \"#utility.yul\":5197:5270   */\n      eq\n        /* \"#utility.yul\":5180:5310   */\n      and\n        /* \"#utility.yul\":5177:5333   */\n      iszero\n      tag_126\n      jumpi\n        /* \"#utility.yul\":5313:5331   */\n      tag_127\n      tag_67\n      jump\t// in\n    tag_127:\n        /* \"#utility.yul\":5177:5333   */\n    tag_126:\n        /* \"#utility.yul\":5356:5357   */\n      dup3\n        /* \"#utility.yul\":5353:5354   */\n      dup3\n        /* \"#utility.yul\":5348:5358   */\n      sdiv\n        /* \"#utility.yul\":5343:5358   */\n      swap1\n      pop\n        /* \"#utility.yul\":4979:5364   */\n      swap3\n      swap2\n      pop\n      pop\n      jump\t// out\n        /* \"#utility.yul\":5370:5742   */\n    tag_54:\n        /* \"#utility.yul\":5409:5413   */\n      0x00\n        /* \"#utility.yul\":5429:5448   */\n      tag_129\n        /* \"#utility.yul\":5446:5447   */\n      dup3\n        /* \"#utility.yul\":5429:5448   */\n      tag_59\n      jump\t// in\n    tag_129:\n        /* \"#utility.yul\":5424:5448   */\n      swap2\n      pop\n        /* \"#utility.yul\":5462:5481   */\n      tag_130\n        /* \"#utility.yul\":5479:5480   */\n      dup4\n        /* \"#utility.yul\":5462:5481   */\n      tag_59\n      jump\t// in\n    tag_130:\n        /* \"#utility.yul\":5457:5481   */\n      swap3\n      pop\n        /* \"#utility.yul\":5505:5506   */\n      dup3\n        /* \"#utility.yul\":5502:5503   */\n      dup3\n        /* \"#utility.yul\":5498:5507   */\n      sub\n        /* \"#utility.yul\":5490:5507   */\n      swap1\n      pop\n        /* \"#utility.yul\":5699:5700   */\n      dup2\n        /* \"#utility.yul\":5693:5697   */\n      dup2\n        /* \"#utility.yul\":5689:5701   */\n      slt\n        /* \"#utility.yul\":5685:5686   */\n      0x00\n        /* \"#utility.yul\":5682:5683   */\n      dup5\n        /* \"#utility.yul\":5678:5687   */\n      slt\n        /* \"#utility.yul\":5674:5702   */\n      and\n        /* \"#utility.yul\":5657:5658   */\n      dup3\n        /* \"#utility.yul\":5651:5655   */\n      dup3\n        /* \"#utility.yul\":5647:5659   */\n      sgt\n        /* \"#utility.yul\":5642:5643   */\n      0x00\n        /* \"#utility.yul\":5639:5640   */\n      dup6\n        /* \"#utility.yul\":5635:5644   */\n      slt\n        /* \"#utility.yul\":5628:5645   */\n      iszero\n        /* \"#utility.yul\":5624:5660   */\n      and\n        /* \"#utility.yul\":5608:5712   */\n      or\n        /* \"#utility.yul\":5605:5735   */\n      iszero\n      tag_131\n      jumpi\n        /* \"#utility.yul\":5715:5733   */\n      tag_132\n      tag_67\n      jump\t// in\n    tag_132:\n        /* \"#utility.yul\":5605:5735   */\n    tag_131:\n        /* \"#utility.yul\":5370:5742   */\n      swap3\n      swap2\n      pop\n      pop\n      jump\t// out\n\n    auxdata: 0xa264697066735822122087fdea7b097fd1f4d01819cd35f69b83fd8a2d6c259e833b191eef9f89bd376864736f6c634300081a0033\n}\n",
				"bytecode": {
					"linkReferences": {},
					"object": "60806040525f80553480156011575f80fd5b506105d28061001f5f395ff3fe608060405234801561000f575f80fd5b506004361061007b575f3560e01c806387db03b71161005957806387db03b7146100d5578063aaa044dc146100f1578063ae0f61661461010d578063d826f88f146101295761007b565b80630e2ced2a1461007f5780631df4f1441461009b5780636d4ce63c146100b7575b5f80fd5b61009960048036038101906100949190610280565b610133565b005b6100b560048036038101906100b09190610280565b61018f565b005b6100bf6101a9565b6040516100cc91906102ba565b60405180910390f35b6100ef60048036038101906100ea9190610280565b6101b1565b005b61010b60048036038101906101069190610280565b6101cb565b005b61012760048036038101906101229190610280565b610227565b005b610131610241565b005b5f8103610175576040517f08c379a000000000000000000000000000000000000000000000000000000000815260040161016c9061032d565b60405180910390fd5b805f808282546101859190610378565b9250508190555050565b805f8082825461019f91906103d5565b9250508190555050565b5f8054905090565b805f808282546101c1919061044b565b9250508190555050565b5f810361020d576040517f08c379a0000000000000000000000000000000000000000000000000000000008152600401610204906104d6565b60405180910390fd5b805f8082825461021d91906104f4565b9250508190555050565b805f80828254610237919061055c565b9250508190555050565b5f8081905550565b5f80fd5b5f819050919050565b61025f8161024d565b8114610269575f80fd5b50565b5f8135905061027a81610256565b92915050565b5f6020828403121561029557610294610249565b5b5f6102a28482850161026c565b91505092915050565b6102b48161024d565b82525050565b5f6020820190506102cd5f8301846102ab565b92915050565b5f82825260208201905092915050565b7f43616e6e6f7420646f2077697468207a65726f000000000000000000000000005f82015250565b5f6103176013836102d3565b9150610322826102e3565b602082019050919050565b5f6020820190508181035f8301526103448161030b565b9050919050565b7f4e487b71000000000000000000000000000000000000000000000000000000005f52601260045260245ffd5b5f6103828261024d565b915061038d8361024d565b92508261039d5761039c61034b565b5b828207905092915050565b7f4e487b71000000000000000000000000000000000000000000000000000000005f52601160045260245ffd5b5f6103df8261024d565b91506103ea8361024d565b92508282026103f88161024d565b91507f800000000000000000000000000000000000000000000000000000000000000084145f8412161561042f5761042e6103a8565b5b8282058414831517610444576104436103a8565b5b5092915050565b5f6104558261024d565b91506104608361024d565b92508282019050828112155f8312168382125f841215161715610486576104856103a8565b5b92915050565b7f43616e6e6f7420646976696465206279207a65726f00000000000000000000005f82015250565b5f6104c06015836102d3565b91506104cb8261048c565b602082019050919050565b5f6020820190508181035f8301526104ed816104b4565b9050919050565b5f6104fe8261024d565b91506105098361024d565b9250826105195761051861034b565b5b60015f0383147f800000000000000000000000000000000000000000000000000000000000000083141615610551576105506103a8565b5b828205905092915050565b5f6105668261024d565b91506105718361024d565b925082820390508181125f8412168282135f851215161715610596576105956103a8565b5b9291505056fea264697066735822122087fdea7b097fd1f4d01819cd35f69b83fd8a2d6c259e833b191eef9f89bd376864736f6c634300081a0033",
					"opcodes": "PUSH1 0x80 PUSH1 0x40 MSTORE PUSH0 DUP1 SSTORE CALLVALUE DUP1 ISZERO PUSH1 0x11 JUMPI PUSH0 DUP1 REVERT JUMPDEST POP PUSH2 0x5D2 DUP1 PUSH2 0x1F PUSH0 CODECOPY PUSH0 RETURN INVALID PUSH1 0x80 PUSH1 0x40 MSTORE CALLVALUE DUP1 ISZERO PUSH2 0xF JUMPI PUSH0 DUP1 REVERT JUMPDEST POP PUSH1 0x4 CALLDATASIZE LT PUSH2 0x7B JUMPI PUSH0 CALLDATALOAD PUSH1 0xE0 SHR DUP1 PUSH4 0x87DB03B7 GT PUSH2 0x59 JUMPI DUP1 PUSH4 0x87DB03B7 EQ PUSH2 0xD5 JUMPI DUP1 PUSH4 0xAAA044DC EQ PUSH2 0xF1 JUMPI DUP1 PUSH4 0xAE0F6166 EQ PUSH2 0x10D JUMPI DUP1 PUSH4 0xD826F88F EQ PUSH2 0x129 JUMPI PUSH2 0x7B JUMP JUMPDEST DUP1 PUSH4 0xE2CED2A EQ PUSH2 0x7F JUMPI DUP1 PUSH4 0x1DF4F144 EQ PUSH2 0x9B JUMPI DUP1 PUSH4 0x6D4CE63C EQ PUSH2 0xB7 JUMPI JUMPDEST PUSH0 DUP1 REVERT JUMPDEST PUSH2 0x99 PUSH1 0x4 DUP1 CALLDATASIZE SUB DUP2 ADD SWAP1 PUSH2 0x94 SWAP2 SWAP1 PUSH2 0x280 JUMP JUMPDEST PUSH2 0x133 JUMP JUMPDEST STOP JUMPDEST PUSH2 0xB5 PUSH1 0x4 DUP1 CALLDATASIZE SUB DUP2 ADD SWAP1 PUSH2 0xB0 SWAP2 SWAP1 PUSH2 0x280 JUMP JUMPDEST PUSH2 0x18F JUMP JUMPDEST STOP JUMPDEST PUSH2 0xBF PUSH2 0x1A9 JUMP JUMPDEST PUSH1 0x40 MLOAD PUSH2 0xCC SWAP2 SWAP1 PUSH2 0x2BA JUMP JUMPDEST PUSH1 0x40 MLOAD DUP1 SWAP2 SUB SWAP1 RETURN JUMPDEST PUSH2 0xEF PUSH1 0x4 DUP1 CALLDATASIZE SUB DUP2 ADD SWAP1 PUSH2 0xEA SWAP2 SWAP1 PUSH2 0x280 JUMP JUMPDEST PUSH2 0x1B1 JUMP JUMPDEST STOP JUMPDEST PUSH2 0x10B PUSH1 0x4 DUP1 CALLDATASIZE SUB DUP2 ADD SWAP1 PUSH2 0x106 SWAP2 SWAP1 PUSH2 0x280 JUMP JUMPDEST PUSH2 0x1CB JUMP JUMPDEST STOP JUMPDEST PUSH2 0x127 PUSH1 0x4 DUP1 CALLDATASIZE SUB DUP2 ADD SWAP1 PUSH2 0x122 SWAP2 SWAP1 PUSH2 0x280 JUMP JUMPDEST PUSH2 0x227 JUMP JUMPDEST STOP JUMPDEST PUSH2 0x131 PUSH2 0x241 JUMP JUMPDEST STOP JUMPDEST PUSH0 DUP2 SUB PUSH2 0x175 JUMPI PUSH1 0x40 MLOAD PUSH32 0x8C379A000000000000000000000000000000000000000000000000000000000 DUP2 MSTORE PUSH1 0x4 ADD PUSH2 0x16C SWAP1 PUSH2 0x32D JUMP JUMPDEST PUSH1 0x40 MLOAD DUP1 SWAP2 SUB SWAP1 REVERT JUMPDEST DUP1 PUSH0 DUP1 DUP3 DUP3 SLOAD PUSH2 0x185 SWAP2 SWAP1 PUSH2 0x378 JUMP JUMPDEST SWAP3 POP POP DUP2 SWAP1 SSTORE POP POP JUMP JUMPDEST DUP1 PUSH0 DUP1 DUP3 DUP3 SLOAD PUSH2 0x19F SWAP2 SWAP1 PUSH2 0x3D5 JUMP JUMPDEST SWAP3 POP POP DUP2 SWAP1 SSTORE POP POP JUMP JUMPDEST PUSH0 DUP1 SLOAD SWAP1 POP SWAP1 JUMP JUMPDEST DUP1 PUSH0 DUP1 DUP3 DUP3 SLOAD PUSH2 0x1C1 SWAP2 SWAP1 PUSH2 0x44B JUMP JUMPDEST SWAP3 POP POP DUP2 SWAP1 SSTORE POP POP JUMP JUMPDEST PUSH0 DUP2 SUB PUSH2 0x20D JUMPI PUSH1 0x40 MLOAD PUSH32 0x8C379A000000000000000000000000000000000000000000000000000000000 DUP2 MSTORE PUSH1 0x4 ADD PUSH2 0x204 SWAP1 PUSH2 0x4D6 JUMP JUMPDEST PUSH1 0x40 MLOAD DUP1 SWAP2 SUB SWAP1 REVERT JUMPDEST DUP1 PUSH0 DUP1 DUP3 DUP3 SLOAD PUSH2 0x21D SWAP2 SWAP1 PUSH2 0x4F4 JUMP JUMPDEST SWAP3 POP POP DUP2 SWAP1 SSTORE POP POP JUMP JUMPDEST DUP1 PUSH0 DUP1 DUP3 DUP3 SLOAD PUSH2 0x237 SWAP2 SWAP1 PUSH2 0x55C JUMP JUMPDEST SWAP3 POP POP DUP2 SWAP1 SSTORE POP POP JUMP JUMPDEST PUSH0 DUP1 DUP2 SWAP1 SSTORE POP JUMP JUMPDEST PUSH0 DUP1 REVERT JUMPDEST PUSH0 DUP2 SWAP1 POP SWAP2 SWAP1 POP JUMP JUMPDEST PUSH2 0x25F DUP2 PUSH2 0x24D JUMP JUMPDEST DUP2 EQ PUSH2 0x269 JUMPI PUSH0 DUP1 REVERT JUMPDEST POP JUMP JUMPDEST PUSH0 DUP2 CALLDATALOAD SWAP1 POP PUSH2 0x27A DUP2 PUSH2 0x256 JUMP JUMPDEST SWAP3 SWAP2 POP POP JUMP JUMPDEST PUSH0 PUSH1 0x20 DUP3 DUP5 SUB SLT ISZERO PUSH2 0x295 JUMPI PUSH2 0x294 PUSH2 0x249 JUMP JUMPDEST JUMPDEST PUSH0 PUSH2 0x2A2 DUP5 DUP3 DUP6 ADD PUSH2 0x26C JUMP JUMPDEST SWAP2 POP POP SWAP3 SWAP2 POP POP JUMP JUMPDEST PUSH2 0x2B4 DUP2 PUSH2 0x24D JUMP JUMPDEST DUP3 MSTORE POP POP JUMP JUMPDEST PUSH0 PUSH1 0x20 DUP3 ADD SWAP1 POP PUSH2 0x2CD PUSH0 DUP4 ADD DUP5 PUSH2 0x2AB JUMP JUMPDEST SWAP3 SWAP2 POP POP JUMP JUMPDEST PUSH0 DUP3 DUP3 MSTORE PUSH1 0x20 DUP3 ADD SWAP1 POP SWAP3 SWAP2 POP POP JUMP JUMPDEST PUSH32 0x43616E6E6F7420646F2077697468207A65726F00000000000000000000000000 PUSH0 DUP3 ADD MSTORE POP JUMP JUMPDEST PUSH0 PUSH2 0x317 PUSH1 0x13 DUP4 PUSH2 0x2D3 JUMP JUMPDEST SWAP2 POP PUSH2 0x322 DUP3 PUSH2 0x2E3 JUMP JUMPDEST PUSH1 0x20 DUP3 ADD SWAP1 POP SWAP2 SWAP1 POP JUMP JUMPDEST PUSH0 PUSH1 0x20 DUP3 ADD SWAP1 POP DUP2 DUP2 SUB PUSH0 DUP4 ADD MSTORE PUSH2 0x344 DUP2 PUSH2 0x30B JUMP JUMPDEST SWAP1 POP SWAP2 SWAP1 POP JUMP JUMPDEST PUSH32 0x4E487B7100000000000000000000000000000000000000000000000000000000 PUSH0 MSTORE PUSH1 0x12 PUSH1 0x4 MSTORE PUSH1 0x24 PUSH0 REVERT JUMPDEST PUSH0 PUSH2 0x382 DUP3 PUSH2 0x24D JUMP JUMPDEST SWAP2 POP PUSH2 0x38D DUP4 PUSH2 0x24D JUMP JUMPDEST SWAP3 POP DUP3 PUSH2 0x39D JUMPI PUSH2 0x39C PUSH2 0x34B JUMP JUMPDEST JUMPDEST DUP3 DUP3 SMOD SWAP1 POP SWAP3 SWAP2 POP POP JUMP JUMPDEST PUSH32 0x4E487B7100000000000000000000000000000000000000000000000000000000 PUSH0 MSTORE PUSH1 0x11 PUSH1 0x4 MSTORE PUSH1 0x24 PUSH0 REVERT JUMPDEST PUSH0 PUSH2 0x3DF DUP3 PUSH2 0x24D JUMP JUMPDEST SWAP2 POP PUSH2 0x3EA DUP4 PUSH2 0x24D JUMP JUMPDEST SWAP3 POP DUP3 DUP3 MUL PUSH2 0x3F8 DUP2 PUSH2 0x24D JUMP JUMPDEST SWAP2 POP PUSH32 0x8000000000000000000000000000000000000000000000000000000000000000 DUP5 EQ PUSH0 DUP5 SLT AND ISZERO PUSH2 0x42F JUMPI PUSH2 0x42E PUSH2 0x3A8 JUMP JUMPDEST JUMPDEST DUP3 DUP3 SDIV DUP5 EQ DUP4 ISZERO OR PUSH2 0x444 JUMPI PUSH2 0x443 PUSH2 0x3A8 JUMP JUMPDEST JUMPDEST POP SWAP3 SWAP2 POP POP JUMP JUMPDEST PUSH0 PUSH2 0x455 DUP3 PUSH2 0x24D JUMP JUMPDEST SWAP2 POP PUSH2 0x460 DUP4 PUSH2 0x24D JUMP JUMPDEST SWAP3 POP DUP3 DUP3 ADD SWAP1 POP DUP3 DUP2 SLT ISZERO PUSH0 DUP4 SLT AND DUP4 DUP3 SLT PUSH0 DUP5 SLT ISZERO AND OR ISZERO PUSH2 0x486 JUMPI PUSH2 0x485 PUSH2 0x3A8 JUMP JUMPDEST JUMPDEST SWAP3 SWAP2 POP POP JUMP JUMPDEST PUSH32 0x43616E6E6F7420646976696465206279207A65726F0000000000000000000000 PUSH0 DUP3 ADD MSTORE POP JUMP JUMPDEST PUSH0 PUSH2 0x4C0 PUSH1 0x15 DUP4 PUSH2 0x2D3 JUMP JUMPDEST SWAP2 POP PUSH2 0x4CB DUP3 PUSH2 0x48C JUMP JUMPDEST PUSH1 0x20 DUP3 ADD SWAP1 POP SWAP2 SWAP1 POP JUMP JUMPDEST PUSH0 PUSH1 0x20 DUP3 ADD SWAP1 POP DUP2 DUP2 SUB PUSH0 DUP4 ADD MSTORE PUSH2 0x4ED DUP2 PUSH2 0x4B4 JUMP JUMPDEST SWAP1 POP SWAP2 SWAP1 POP JUMP JUMPDEST PUSH0 PUSH2 0x4FE DUP3 PUSH2 0x24D JUMP JUMPDEST SWAP2 POP PUSH2 0x509 DUP4 PUSH2 0x24D JUMP JUMPDEST SWAP3 POP DUP3 PUSH2 0x519 JUMPI PUSH2 0x518 PUSH2 0x34B JUMP JUMPDEST JUMPDEST PUSH1 0x1 PUSH0 SUB DUP4 EQ PUSH32 0x8000000000000000000000000000000000000000000000000000000000000000 DUP4 EQ AND ISZERO PUSH2 0x551 JUMPI PUSH2 0x550 PUSH2 0x3A8 JUMP JUMPDEST JUMPDEST DUP3 DUP3 SDIV SWAP1 POP SWAP3 SWAP2 POP POP JUMP JUMPDEST PUSH0 PUSH2 0x566 DUP3 PUSH2 0x24D JUMP JUMPDEST SWAP2 POP PUSH2 0x571 DUP4 PUSH2 0x24D JUMP JUMPDEST SWAP3 POP DUP3 DUP3 SUB SWAP1 POP DUP2 DUP2 SLT PUSH0 DUP5 SLT AND DUP3 DUP3 SGT PUSH0 DUP6 SLT ISZERO AND OR ISZERO PUSH2 0x596 JUMPI PUSH2 0x595 PUSH2 0x3A8 JUMP JUMPDEST JUMPDEST SWAP3 SWAP2 POP POP JUMP INVALID LOG2 PUSH5 0x6970667358 0x22 SLT KECCAK256 DUP8 REVERT 0xEA PUSH28 0x97FD1F4D01819CD35F69B83FD8A2D6C259E833B191EEF9F89BD3768 PUSH5 0x736F6C6343 STOP ADDMOD BYTE STOP CALLER "
				},
				"gasEstimates": {
					"creation": {
						"codeDepositCost": "298000",
						"executionCost": "5340",
						"totalCost": "303340"
					},
					"external": {
						"Remainder(int256)": "infinite",
						"add(int256)": "infinite",
						"divide(int256)": "infinite",
						"get()": "2477",
						"multiply(int256)": "infinite",
						"reset()": "5222",
						"subtract(int256)": "infinite"
					}
				},
				"methodIdentifiers": {
					"Remainder(int256)": "0e2ced2a",
					"add(int256)": "87db03b7",
					"divide(int256)": "aaa044dc",
					"get()": "6d4ce63c",
					"multiply(int256)": "1df4f144",
					"reset()": "d826f88f",
					"subtract(int256)": "ae0f6166"
				}
			},
			"storageLayout": {
				"storage": [
					{
						"astId": 4,
						"contract": "contracts/Calculator.sol:Cal",
						"label": "result",
						"offset": 0,
						"slot": "0",
						"type": "t_int256"
					}
				],
				"types": {
					"t_int256": {
						"encoding": "inplace",
						"label": "int256",
						"numberOfBytes": "32"
					}
				}
			},
			"userdoc": {
				"kind": "user",
				"methods": {},
				"version": 1
			}
		}
	}
}